{
  "_format": "hh-sol-artifact-1",
  "contractName": "Genesis",
  "sourceName": "src/contracts/Genesis.sol",
  "abi": [
    {
      "inputs": [],
      "stateMutability": "nonpayable",
      "type": "constructor"
    },
    {
      "anonymous": false,
      "inputs": [
        {
          "indexed": false,
          "internalType": "uint256",
          "name": "id",
          "type": "uint256"
        },
        {
          "indexed": false,
          "internalType": "string",
          "name": "actionType",
          "type": "string"
        },
        {
          "indexed": true,
          "internalType": "address",
          "name": "executor",
          "type": "address"
        },
        {
          "indexed": false,
          "internalType": "uint256",
          "name": "timestamp",
          "type": "uint256"
        }
      ],
      "name": "Action",
      "type": "event"
    },
    {
      "inputs": [
        {
          "internalType": "uint256",
          "name": "id",
          "type": "uint256"
        }
      ],
      "name": "backProject",
      "outputs": [
        {
          "internalType": "bool",
          "name": "",
          "type": "bool"
        }
      ],
      "stateMutability": "payable",
      "type": "function"
    },
    {
      "inputs": [],
      "name": "balance",
      "outputs": [
        {
          "internalType": "uint256",
          "name": "",
          "type": "uint256"
        }
      ],
      "stateMutability": "view",
      "type": "function"
    },
    {
      "inputs": [
        {
          "internalType": "string",
          "name": "title",
          "type": "string"
        },
        {
          "internalType": "string",
          "name": "description",
          "type": "string"
        },
        {
          "internalType": "string",
          "name": "imageURL",
          "type": "string"
        },
        {
          "internalType": "uint256",
          "name": "cost",
          "type": "uint256"
        },
        {
          "internalType": "uint256",
          "name": "expiresAt",
          "type": "uint256"
        }
      ],
      "name": "createProject",
      "outputs": [
        {
          "internalType": "bool",
          "name": "",
          "type": "bool"
        }
      ],
      "stateMutability": "nonpayable",
      "type": "function"
    },
    {
      "inputs": [
        {
          "internalType": "uint256",
          "name": "id",
          "type": "uint256"
        }
      ],
      "name": "deleteProject",
      "outputs": [
        {
          "internalType": "bool",
          "name": "",
          "type": "bool"
        }
      ],
      "stateMutability": "nonpayable",
      "type": "function"
    },
    {
      "inputs": [
        {
          "internalType": "uint256",
          "name": "id",
          "type": "uint256"
        }
      ],
      "name": "getBackers",
      "outputs": [
        {
          "components": [
            {
              "internalType": "address",
              "name": "owner",
              "type": "address"
            },
            {
              "internalType": "uint256",
              "name": "contribution",
              "type": "uint256"
            },
            {
              "internalType": "uint256",
              "name": "timestamp",
              "type": "uint256"
            },
            {
              "internalType": "bool",
              "name": "refunded",
              "type": "bool"
            }
          ],
          "internalType": "struct Genesis.backerStruct[]",
          "name": "",
          "type": "tuple[]"
        }
      ],
      "stateMutability": "view",
      "type": "function"
    },
    {
      "inputs": [
        {
          "internalType": "uint256",
          "name": "id",
          "type": "uint256"
        }
      ],
      "name": "getProject",
      "outputs": [
        {
          "components": [
            {
              "internalType": "uint256",
              "name": "id",
              "type": "uint256"
            },
            {
              "internalType": "address",
              "name": "owner",
              "type": "address"
            },
            {
              "internalType": "string",
              "name": "title",
              "type": "string"
            },
            {
              "internalType": "string",
              "name": "description",
              "type": "string"
            },
            {
              "internalType": "string",
              "name": "imageURL",
              "type": "string"
            },
            {
              "internalType": "uint256",
              "name": "cost",
              "type": "uint256"
            },
            {
              "internalType": "uint256",
              "name": "raised",
              "type": "uint256"
            },
            {
              "internalType": "uint256",
              "name": "timestamp",
              "type": "uint256"
            },
            {
              "internalType": "uint256",
              "name": "expiresAt",
              "type": "uint256"
            },
            {
              "internalType": "uint256",
              "name": "backers",
              "type": "uint256"
            },
            {
              "internalType": "enum Genesis.statusEnum",
              "name": "status",
              "type": "uint8"
            }
          ],
          "internalType": "struct Genesis.projectStruct",
          "name": "",
          "type": "tuple"
        }
      ],
      "stateMutability": "view",
      "type": "function"
    },
    {
      "inputs": [],
      "name": "getProjects",
      "outputs": [
        {
          "components": [
            {
              "internalType": "uint256",
              "name": "id",
              "type": "uint256"
            },
            {
              "internalType": "address",
              "name": "owner",
              "type": "address"
            },
            {
              "internalType": "string",
              "name": "title",
              "type": "string"
            },
            {
              "internalType": "string",
              "name": "description",
              "type": "string"
            },
            {
              "internalType": "string",
              "name": "imageURL",
              "type": "string"
            },
            {
              "internalType": "uint256",
              "name": "cost",
              "type": "uint256"
            },
            {
              "internalType": "uint256",
              "name": "raised",
              "type": "uint256"
            },
            {
              "internalType": "uint256",
              "name": "timestamp",
              "type": "uint256"
            },
            {
              "internalType": "uint256",
              "name": "expiresAt",
              "type": "uint256"
            },
            {
              "internalType": "uint256",
              "name": "backers",
              "type": "uint256"
            },
            {
              "internalType": "enum Genesis.statusEnum",
              "name": "status",
              "type": "uint8"
            }
          ],
          "internalType": "struct Genesis.projectStruct[]",
          "name": "",
          "type": "tuple[]"
        }
      ],
      "stateMutability": "view",
      "type": "function"
    },
    {
      "inputs": [],
      "name": "owner",
      "outputs": [
        {
          "internalType": "address",
          "name": "",
          "type": "address"
        }
      ],
      "stateMutability": "view",
      "type": "function"
    },
    {
      "inputs": [
        {
          "internalType": "uint256",
          "name": "id",
          "type": "uint256"
        }
      ],
      "name": "payOutProject",
      "outputs": [
        {
          "internalType": "bool",
          "name": "",
          "type": "bool"
        }
      ],
      "stateMutability": "nonpayable",
      "type": "function"
    },
    {
      "inputs": [],
      "name": "projectCount",
      "outputs": [
        {
          "internalType": "uint256",
          "name": "",
          "type": "uint256"
        }
      ],
      "stateMutability": "view",
      "type": "function"
    },
    {
      "inputs": [
        {
          "internalType": "uint256",
          "name": "",
          "type": "uint256"
        }
      ],
      "name": "projectExist",
      "outputs": [
        {
          "internalType": "bool",
          "name": "",
          "type": "bool"
        }
      ],
      "stateMutability": "view",
      "type": "function"
    },
    {
      "inputs": [
        {
          "internalType": "uint256",
          "name": "id",
          "type": "uint256"
        }
      ],
      "name": "refundProject",
      "outputs": [
        {
          "internalType": "bool",
          "name": "",
          "type": "bool"
        }
      ],
      "stateMutability": "payable",
      "type": "function"
    },
    {
      "inputs": [],
      "name": "stats",
      "outputs": [
        {
          "internalType": "uint256",
          "name": "totalProjects",
          "type": "uint256"
        },
        {
          "internalType": "uint256",
          "name": "totalBacking",
          "type": "uint256"
        },
        {
          "internalType": "uint256",
          "name": "totalDonations",
          "type": "uint256"
        }
      ],
      "stateMutability": "view",
      "type": "function"
    },
    {
      "inputs": [
        {
          "internalType": "uint256",
          "name": "id",
          "type": "uint256"
        }
      ],
      "name": "updateProj",
      "outputs": [
        {
          "internalType": "bool",
          "name": "",
          "type": "bool"
        }
      ],
      "stateMutability": "nonpayable",
      "type": "function"
    },
    {
      "inputs": [
        {
          "internalType": "uint256",
          "name": "id",
          "type": "uint256"
        },
        {
          "internalType": "string",
          "name": "title",
          "type": "string"
        },
        {
          "internalType": "string",
          "name": "description",
          "type": "string"
        },
        {
          "internalType": "string",
          "name": "imageURL",
          "type": "string"
        },
        {
          "internalType": "uint256",
          "name": "expiresAt",
          "type": "uint256"
        }
      ],
      "name": "updateProject",
      "outputs": [
        {
          "internalType": "bool",
          "name": "",
          "type": "bool"
        }
      ],
      "stateMutability": "nonpayable",
      "type": "function"
    }
  ],
  "bytecode": "0x608060405234801561001057600080fd5b50600080546001600160a01b031916331790556121c7806100326000396000f3fe6080604052600436106100e85760003560e01c80639a3fa8c71161008a578063c9168b7211610059578063c9168b721461026a578063d80528ae14610297578063dcc60128146102d1578063f0f3f2c8146102f357600080fd5b80639a3fa8c7146102015780639f39a19414610221578063b531dcba14610234578063b69ef8a81461025457600080fd5b80633f7ed52e116100c65780633f7ed52e146101665780634cd0cb28146101795780638593054b146101995780638da5cb5b146101c957600080fd5b8063056c29ee146100ed578063245ca9601461012257806336fbad2614610142575b600080fd5b3480156100f957600080fd5b5061010d610108366004611caf565b610320565b60405190151581526020015b60405180910390f35b34801561012e57600080fd5b5061010d61013d366004611d49565b610783565b34801561014e57600080fd5b5061015860015481565b604051908152602001610119565b61010d610174366004611d49565b610875565b34801561018557600080fd5b5061010d610194366004611d49565b6109d1565b3480156101a557600080fd5b5061010d6101b4366004611d49565b60096020526000908152604090205460ff1681565b3480156101d557600080fd5b506000546101e9906001600160a01b031681565b6040516001600160a01b039091168152602001610119565b34801561020d57600080fd5b5061010d61021c366004611d62565b610b1a565b61010d61022f366004611d49565b610d91565b34801561024057600080fd5b5061010d61024f366004611d49565b6110df565b34801561026057600080fd5b5061015860025481565b34801561027657600080fd5b5061028a610285366004611d49565b6111ce565b6040516101199190611dfc565b3480156102a357600080fd5b506003546004546005546102b692919083565b60408051938452602084019290925290820152606001610119565b3480156102dd57600080fd5b506102e6611270565b6040516101199190611fb5565b3480156102ff57600080fd5b5061031361030e366004611d49565b61150b565b6040516101199190612017565b60008086511161036f5760405162461bcd60e51b81526020600482015260156024820152745469746c652063616e6e6f7420626520656d70747960581b60448201526064015b60405180910390fd5b60008551116103c05760405162461bcd60e51b815260206004820152601b60248201527f4465736372697074696f6e2063616e6e6f7420626520656d70747900000000006044820152606401610366565b600084511161040c5760405162461bcd60e51b8152602060048201526018602482015277496d61676555524c2063616e6e6f7420626520656d70747960401b6044820152606401610366565b600083116104525760405162461bcd60e51b8152602060048201526013602482015272436f73742063616e6e6f74206265207a65726f60681b6044820152606401610366565b61045a611b00565b600180548252336020808401918252604084018a8152606085018a90526080850189905260a085018890524260e0860152610100850187905260068054948501815560005284517ff652222313e28459528d920b65115c16c04f3efc82aaedc97be59f3f377c0d3f600b90950294850190815592517ff652222313e28459528d920b65115c16c04f3efc82aaedc97be59f3f377c0d40850180546001600160a01b0319166001600160a01b039092169190911790555180518594610544937ff652222313e28459528d920b65115c16c04f3efc82aaedc97be59f3f377c0d41909101920190611b73565b5060608201518051610560916003840191602090910190611b73565b506080820151805161057c916004840191602090910190611b73565b5060a0820151600582015560c0820151600682015560e0820151600782015561010082015160088201556101208201516009820155610140820151600a8201805460ff191660018360038111156105d5576105d5611eb8565b021790555050600180546000908152600960209081526040808320805460ff1916851790553383526007825280832080548086018255908452928290208651600b909402019283558582015193830180546001600160a01b0319166001600160a01b0390951694909417909355918401518051859450919261065f92600285019290910190611b73565b506060820151805161067b916003840191602090910190611b73565b5060808201518051610697916004840191602090910190611b73565b5060a0820151600582015560c0820151600682015560e0820151600782015561010082015160088201556101208201516009820155610140820151600a8201805460ff191660018360038111156106f0576106f0611eb8565b0217905550505060016003600001600082825461070d9190612047565b9091555050600180543391600080516020612172833981519152919060006107348361205f565b9091555060408051918252606060208301819052600f908301526e141493d29150d50810d49150551151608a1b6080830152429082015260a00160405180910390a25060019695505050505050565b6000600682815481106107985761079861207a565b60009182526020909120600b90910201600101546001600160a01b031633146107d35760405162461bcd60e51b815260040161036690612090565b6001600683815481106107e8576107e861207a565b60009182526020909120600a600b9092020101805460ff1916600183600381111561081557610815611eb8565b021790555060408051838152606060208201819052600e908201526d14d510551554c81554111055115160921b6080820152429181019190915233906000805160206121728339815191529060a0015b60405180910390a2506001919050565b60008181526009602052604081205460ff166108a35760405162461bcd60e51b8152600401610366906120bd565b6000600683815481106108b8576108b861207a565b60009182526020909120600a600b90920201015460ff1660038111156108e0576108e0611eb8565b146108fd5760405162461bcd60e51b8152600401610366906120e8565b604080518381526060602082018190526010908201526f141493d29150d508149151955391115160821b6080820152428183015290513391600080516020612172833981519152919081900360a00190a2600682815481106109615761096161207a565b90600052602060002090600b02016008015442106109c95760016006838154811061098e5761098e61207a565b60009182526020909120600a600b9092020101805460ff191660018360038111156109bb576109bb611eb8565b02179055506109c9826117c7565b506001919050565b600080600683815481106109e7576109e761207a565b60009182526020909120600a600b90920201015460ff166003811115610a0f57610a0f611eb8565b14610a2c5760405162461bcd60e51b8152600401610366906120e8565b60068281548110610a3f57610a3f61207a565b60009182526020909120600b90910201600101546001600160a01b03163314610a7a5760405162461bcd60e51b815260040161036690612090565b600260068381548110610a8f57610a8f61207a565b60009182526020909120600a600b9092020101805460ff19166001836003811115610abc57610abc611eb8565b0217905550610aca826117c7565b60408051838152606060208201819052600f908201526e141493d29150d50811115311551151608a1b6080820152429181019190915233906000805160206121728339815191529060a001610865565b600060068681548110610b2f57610b2f61207a565b60009182526020909120600b90910201600101546001600160a01b03163314610b6a5760405162461bcd60e51b815260040161036690612090565b6000855111610bb35760405162461bcd60e51b81526020600482015260156024820152745469746c652063616e6e6f7420626520656d70747960581b6044820152606401610366565b6000845111610c045760405162461bcd60e51b815260206004820152601b60248201527f4465736372697074696f6e2063616e6e6f7420626520656d70747900000000006044820152606401610366565b6000835111610c505760405162461bcd60e51b8152602060048201526018602482015277496d61676555524c2063616e6e6f7420626520656d70747960401b6044820152606401610366565b8460068781548110610c6457610c6461207a565b90600052602060002090600b02016002019080519060200190610c88929190611b73565b508360068781548110610c9d57610c9d61207a565b90600052602060002090600b02016003019080519060200190610cc1929190611b73565b508260068781548110610cd657610cd661207a565b90600052602060002090600b02016004019080519060200190610cfa929190611b73565b508160068781548110610d0f57610d0f61207a565b90600052602060002090600b020160080181905550336001600160a01b03166000805160206121728339815191528742604051610d7d929190918252606060208301819052600f908301526e141493d29150d50815541110551151608a1b6080830152604082015260a00190565b60405180910390a250600195945050505050565b6000803411610de25760405162461bcd60e51b815260206004820152601f60248201527f4574686572206d7573742062652067726561746572207468616e207a65726f006044820152606401610366565b60008281526009602052604090205460ff16610e105760405162461bcd60e51b8152600401610366906120bd565b600060068381548110610e2557610e2561207a565b60009182526020909120600a600b90920201015460ff166003811115610e4d57610e4d611eb8565b14610e6a5760405162461bcd60e51b8152600401610366906120e8565b600160036001016000828254610e809190612047565b909155505060058054349190600090610e9a908490612047565b925050819055503460068381548110610eb557610eb561207a565b90600052602060002090600b02016006016000828254610ed59190612047565b92505081905550600160068381548110610ef157610ef161207a565b90600052602060002090600b02016009016000828254610f119190612047565b9091555050600082815260086020908152604080832081516080808201845233808352348387019081524284870181815260608087018b8152885460018082018b55998d529b8b902097516004909c0290970180546001600160a01b0319166001600160a01b03909c169b909b178b559251968a01969096559451600289015592516003909701805460ff1916971515979097179096558351888152948501829052600e918501919091526d141493d29150d508109050d2d15160921b90840152908201526000805160206121728339815191529060a00160405180910390a2600682815481106110045761100461207a565b90600052602060002090600b020160050154600683815481106110295761102961207a565b90600052602060002090600b020160060154106110cc576001600683815481106110555761105561207a565b60009182526020909120600a600b9092020101805460ff1916600183600381111561108257611082611eb8565b02179055506006828154811061109a5761109a61207a565b90600052602060002090600b020160060154600260008282546110bd9190612047565b909155506109c9905082611935565b600682815481106109615761096161207a565b60006001600683815481106110f6576110f661207a565b60009182526020909120600a600b90920201015460ff16600381111561111e5761111e611eb8565b146111625760405162461bcd60e51b8152602060048201526014602482015273141c9bda9958dd081b9bdd081054141493d5915160621b6044820152606401610366565b600682815481106111755761117561207a565b60009182526020909120600b90910201600101546001600160a01b03163314806111a957506000546001600160a01b031633145b6111c55760405162461bcd60e51b815260040161036690612090565b6109c982611935565b606060086000838152602001908152602001600020805480602002602001604051908101604052809291908181526020016000905b82821015611265576000848152602090819020604080516080810182526004860290920180546001600160a01b03168352600180820154848601526002820154928401929092526003015460ff16151560608301529083529092019101611203565b505050509050919050565b60606006805480602002602001604051908101604052809291908181526020016000905b828210156115025760008481526020908190206040805161016081018252600b86029092018054835260018101546001600160a01b031693830193909352600283018054929392918401916112e89061211f565b80601f01602080910402602001604051908101604052809291908181526020018280546113149061211f565b80156113615780601f1061133657610100808354040283529160200191611361565b820191906000526020600020905b81548152906001019060200180831161134457829003601f168201915b5050505050815260200160038201805461137a9061211f565b80601f01602080910402602001604051908101604052809291908181526020018280546113a69061211f565b80156113f35780601f106113c8576101008083540402835291602001916113f3565b820191906000526020600020905b8154815290600101906020018083116113d657829003601f168201915b5050505050815260200160048201805461140c9061211f565b80601f01602080910402602001604051908101604052809291908181526020018280546114389061211f565b80156114855780601f1061145a57610100808354040283529160200191611485565b820191906000526020600020905b81548152906001019060200180831161146857829003601f168201915b505050918352505060058201546020820152600682015460408201526007820154606082015260088201546080820152600982015460a0820152600a82015460c09091019060ff1660038111156114de576114de611eb8565b60038111156114ef576114ef611eb8565b8152505081526020019060010190611294565b50505050905090565b611513611b00565b60008281526009602052604090205460ff166115415760405162461bcd60e51b8152600401610366906120bd565b600682815481106115545761155461207a565b90600052602060002090600b020160405180610160016040529081600082015481526020016001820160009054906101000a90046001600160a01b03166001600160a01b03166001600160a01b031681526020016002820180546115b79061211f565b80601f01602080910402602001604051908101604052809291908181526020018280546115e39061211f565b80156116305780601f1061160557610100808354040283529160200191611630565b820191906000526020600020905b81548152906001019060200180831161161357829003601f168201915b505050505081526020016003820180546116499061211f565b80601f01602080910402602001604051908101604052809291908181526020018280546116759061211f565b80156116c25780601f10611697576101008083540402835291602001916116c2565b820191906000526020600020905b8154815290600101906020018083116116a557829003601f168201915b505050505081526020016004820180546116db9061211f565b80601f01602080910402602001604051908101604052809291908181526020018280546117079061211f565b80156117545780601f1061172957610100808354040283529160200191611754565b820191906000526020600020905b81548152906001019060200180831161173757829003601f168201915b505050918352505060058201546020820152600682015460408201526007820154606082015260088201546080820152600982015460a0820152600a82015460c09091019060ff1660038111156117ad576117ad611eb8565b60038111156117be576117be611eb8565b90525092915050565b60005b6000828152600860205260409020548110156119315760008281526008602052604081208054839081106118005761180061207a565b6000918252602080832060049092029091015485835260089091526040822080546001600160a01b039092169350908490811061183f5761183f61207a565b906000526020600020906004020160010154905060016008600086815260200190815260200160002084815481106118795761187961207a565b906000526020600020906004020160030160006101000a81548160ff021916908315150217905550426008600086815260200190815260200160002084815481106118c6576118c661207a565b9060005260206000209060040201600201819055506118e58282611a9b565b6001600360010160008282546118fb919061215a565b90915550506005805482919060009061191590849061215a565b92505081905550505080806119299061205f565b9150506117ca565b5050565b60006006828154811061194a5761194a61207a565b90600052602060002090600b0201600601549050600067016345785d8a000090506003600684815481106119805761198061207a565b60009182526020909120600a600b9092020101805460ff191660018360038111156119ad576119ad611eb8565b02179055506119f4600684815481106119c8576119c861207a565b600091825260209091206001600b9092020101546001600160a01b03166119ef838561215a565b611a9b565b600054611a0a906001600160a01b031682611a9b565b60068381548110611a1d57611a1d61207a565b90600052602060002090600b02016006015460026000828254611a40919061215a565b9091555050604080518481526060602082018190526010908201526f141493d29150d508141052510813d55560821b6080820152428183015290513391600080516020612172833981519152919081900360a00190a2505050565b6000826001600160a01b03168260405160006040518083038185875af1925050503d8060008114611ae8576040519150601f19603f3d011682016040523d82523d6000602084013e611aed565b606091505b5050905080611afb57600080fd5b505050565b6040518061016001604052806000815260200160006001600160a01b03168152602001606081526020016060815260200160608152602001600081526020016000815260200160008152602001600081526020016000815260200160006003811115611b6e57611b6e611eb8565b905290565b828054611b7f9061211f565b90600052602060002090601f016020900481019282611ba15760008555611be7565b82601f10611bba57805160ff1916838001178555611be7565b82800160010185558215611be7579182015b82811115611be7578251825591602001919060010190611bcc565b50611bf3929150611bf7565b5090565b5b80821115611bf35760008155600101611bf8565b634e487b7160e01b600052604160045260246000fd5b600082601f830112611c3357600080fd5b813567ffffffffffffffff80821115611c4e57611c4e611c0c565b604051601f8301601f19908116603f01168101908282118183101715611c7657611c76611c0c565b81604052838152866020858801011115611c8f57600080fd5b836020870160208301376000602085830101528094505050505092915050565b600080600080600060a08688031215611cc757600080fd5b853567ffffffffffffffff80821115611cdf57600080fd5b611ceb89838a01611c22565b96506020880135915080821115611d0157600080fd5b611d0d89838a01611c22565b95506040880135915080821115611d2357600080fd5b50611d3088828901611c22565b9598949750949560608101359550608001359392505050565b600060208284031215611d5b57600080fd5b5035919050565b600080600080600060a08688031215611d7a57600080fd5b85359450602086013567ffffffffffffffff80821115611d9957600080fd5b611da589838a01611c22565b95506040880135915080821115611dbb57600080fd5b611dc789838a01611c22565b94506060880135915080821115611ddd57600080fd5b50611dea88828901611c22565b95989497509295608001359392505050565b602080825282518282018190526000919060409081850190868401855b82811015611e5e57815180516001600160a01b031685528681015187860152858101518686015260609081015115159085015260809093019290850190600101611e19565b5091979650505050505050565b6000815180845260005b81811015611e9157602081850181015186830182015201611e75565b81811115611ea3576000602083870101525b50601f01601f19169290920160200192915050565b634e487b7160e01b600052602160045260246000fd5b60048110611eec57634e487b7160e01b600052602160045260246000fd5b9052565b6000610160825184526020830151611f1360208601826001600160a01b03169052565b506040830151816040860152611f2b82860182611e6b565b91505060608301518482036060860152611f458282611e6b565b91505060808301518482036080860152611f5f8282611e6b565b91505060a083015160a085015260c083015160c085015260e083015160e085015261010080840151818601525061012080840151818601525061014080840151611fab82870182611ece565b5090949350505050565b6000602080830181845280855180835260408601915060408160051b870101925083870160005b8281101561200a57603f19888603018452611ff8858351611ef0565b94509285019290850190600101611fdc565b5092979650505050505050565b60208152600061202a6020830184611ef0565b9392505050565b634e487b7160e01b600052601160045260246000fd5b6000821982111561205a5761205a612031565b500190565b600060001982141561207357612073612031565b5060010190565b634e487b7160e01b600052603260045260246000fd5b602080825260139082015272556e617574686f72697a656420456e7469747960681b604082015260600190565b602080825260119082015270141c9bda9958dd081b9bdd08199bdd5b99607a1b604082015260600190565b60208082526018908201527f50726f6a656374206e6f206c6f6e676572206f70656e65640000000000000000604082015260600190565b600181811c9082168061213357607f821691505b6020821081141561215457634e487b7160e01b600052602260045260246000fd5b50919050565b60008282101561216c5761216c612031565b50039056feaee8e5d3bbb2f71a951b5632cee20f7ac487b9f8ab4f66a236f7694b13af7c6aa2646970667358221220ff25e8de32ed767da06d2d8c446e3baae4526082727ee8ad636d9d68a603c86b64736f6c634300080b0033",
  "linkReferences": {},
  "deployedLinkReferences": {}
}