{
  "_format": "hh-sol-artifact-1",
  "contractName": "Genesis",
  "sourceName": "src/contracts/Genesis.sol",
  "abi": [
    {
      "inputs": [],
      "stateMutability": "nonpayable",
      "type": "constructor"
    },
    {
      "anonymous": false,
      "inputs": [
        {
          "indexed": false,
          "internalType": "uint256",
          "name": "id",
          "type": "uint256"
        },
        {
          "indexed": false,
          "internalType": "string",
          "name": "actionType",
          "type": "string"
        },
        {
          "indexed": true,
          "internalType": "address",
          "name": "executor",
          "type": "address"
        },
        {
          "indexed": false,
          "internalType": "uint256",
          "name": "timestamp",
          "type": "uint256"
        }
      ],
      "name": "Action",
      "type": "event"
    },
    {
      "inputs": [
        {
          "internalType": "uint256",
          "name": "id",
          "type": "uint256"
        }
      ],
      "name": "backProject",
      "outputs": [
        {
          "internalType": "bool",
          "name": "",
          "type": "bool"
        }
      ],
      "stateMutability": "payable",
      "type": "function"
    },
    {
      "inputs": [],
      "name": "balance",
      "outputs": [
        {
          "internalType": "uint256",
          "name": "",
          "type": "uint256"
        }
      ],
      "stateMutability": "view",
      "type": "function"
    },
    {
      "inputs": [
        {
          "internalType": "string",
          "name": "title",
          "type": "string"
        },
        {
          "internalType": "string",
          "name": "description",
          "type": "string"
        },
        {
          "internalType": "string",
          "name": "imageURL",
          "type": "string"
        },
        {
          "internalType": "uint256",
          "name": "cost",
          "type": "uint256"
        },
        {
          "internalType": "uint256",
          "name": "expiresAt",
          "type": "uint256"
        }
      ],
      "name": "createProject",
      "outputs": [
        {
          "internalType": "bool",
          "name": "",
          "type": "bool"
        }
      ],
      "stateMutability": "nonpayable",
      "type": "function"
    },
    {
      "inputs": [
        {
          "internalType": "uint256",
          "name": "id",
          "type": "uint256"
        }
      ],
      "name": "deleteProject",
      "outputs": [
        {
          "internalType": "bool",
          "name": "",
          "type": "bool"
        }
      ],
      "stateMutability": "nonpayable",
      "type": "function"
    },
    {
      "inputs": [
        {
          "internalType": "uint256",
          "name": "id",
          "type": "uint256"
        }
      ],
      "name": "getBackers",
      "outputs": [
        {
          "components": [
            {
              "internalType": "address",
              "name": "owner",
              "type": "address"
            },
            {
              "internalType": "uint256",
              "name": "contribution",
              "type": "uint256"
            },
            {
              "internalType": "uint256",
              "name": "timestamp",
              "type": "uint256"
            },
            {
              "internalType": "bool",
              "name": "refunded",
              "type": "bool"
            }
          ],
          "internalType": "struct Genesis.backerStruct[]",
          "name": "",
          "type": "tuple[]"
        }
      ],
      "stateMutability": "view",
      "type": "function"
    },
    {
      "inputs": [
        {
          "internalType": "uint256",
          "name": "id",
          "type": "uint256"
        }
      ],
      "name": "getProject",
      "outputs": [
        {
          "components": [
            {
              "internalType": "uint256",
              "name": "id",
              "type": "uint256"
            },
            {
              "internalType": "address",
              "name": "owner",
              "type": "address"
            },
            {
              "internalType": "string",
              "name": "title",
              "type": "string"
            },
            {
              "internalType": "string",
              "name": "description",
              "type": "string"
            },
            {
              "internalType": "string",
              "name": "imageURL",
              "type": "string"
            },
            {
              "internalType": "uint256",
              "name": "cost",
              "type": "uint256"
            },
            {
              "internalType": "uint256",
              "name": "raised",
              "type": "uint256"
            },
            {
              "internalType": "uint256",
              "name": "timestamp",
              "type": "uint256"
            },
            {
              "internalType": "uint256",
              "name": "expiresAt",
              "type": "uint256"
            },
            {
              "internalType": "uint256",
              "name": "backers",
              "type": "uint256"
            },
            {
              "internalType": "enum Genesis.statusEnum",
              "name": "status",
              "type": "uint8"
            }
          ],
          "internalType": "struct Genesis.projectStruct",
          "name": "",
          "type": "tuple"
        }
      ],
      "stateMutability": "view",
      "type": "function"
    },
    {
      "inputs": [],
      "name": "getProjects",
      "outputs": [
        {
          "components": [
            {
              "internalType": "uint256",
              "name": "id",
              "type": "uint256"
            },
            {
              "internalType": "address",
              "name": "owner",
              "type": "address"
            },
            {
              "internalType": "string",
              "name": "title",
              "type": "string"
            },
            {
              "internalType": "string",
              "name": "description",
              "type": "string"
            },
            {
              "internalType": "string",
              "name": "imageURL",
              "type": "string"
            },
            {
              "internalType": "uint256",
              "name": "cost",
              "type": "uint256"
            },
            {
              "internalType": "uint256",
              "name": "raised",
              "type": "uint256"
            },
            {
              "internalType": "uint256",
              "name": "timestamp",
              "type": "uint256"
            },
            {
              "internalType": "uint256",
              "name": "expiresAt",
              "type": "uint256"
            },
            {
              "internalType": "uint256",
              "name": "backers",
              "type": "uint256"
            },
            {
              "internalType": "enum Genesis.statusEnum",
              "name": "status",
              "type": "uint8"
            }
          ],
          "internalType": "struct Genesis.projectStruct[]",
          "name": "",
          "type": "tuple[]"
        }
      ],
      "stateMutability": "view",
      "type": "function"
    },
    {
      "inputs": [],
      "name": "owner",
      "outputs": [
        {
          "internalType": "address",
          "name": "",
          "type": "address"
        }
      ],
      "stateMutability": "view",
      "type": "function"
    },
    {
      "inputs": [
        {
          "internalType": "uint256",
          "name": "id",
          "type": "uint256"
        }
      ],
      "name": "payOutProject",
      "outputs": [
        {
          "internalType": "bool",
          "name": "",
          "type": "bool"
        }
      ],
      "stateMutability": "nonpayable",
      "type": "function"
    },
    {
      "inputs": [],
      "name": "projectCount",
      "outputs": [
        {
          "internalType": "uint256",
          "name": "",
          "type": "uint256"
        }
      ],
      "stateMutability": "view",
      "type": "function"
    },
    {
      "inputs": [
        {
          "internalType": "uint256",
          "name": "",
          "type": "uint256"
        }
      ],
      "name": "projectExist",
      "outputs": [
        {
          "internalType": "bool",
          "name": "",
          "type": "bool"
        }
      ],
      "stateMutability": "view",
      "type": "function"
    },
    {
      "inputs": [
        {
          "internalType": "uint256",
          "name": "id",
          "type": "uint256"
        }
      ],
      "name": "refundProject",
      "outputs": [
        {
          "internalType": "bool",
          "name": "",
          "type": "bool"
        }
      ],
      "stateMutability": "payable",
      "type": "function"
    },
    {
      "inputs": [],
      "name": "stats",
      "outputs": [
        {
          "internalType": "uint256",
          "name": "totalProjects",
          "type": "uint256"
        },
        {
          "internalType": "uint256",
          "name": "totalBacking",
          "type": "uint256"
        },
        {
          "internalType": "uint256",
          "name": "totalDonations",
          "type": "uint256"
        }
      ],
      "stateMutability": "view",
      "type": "function"
    },
    {
      "inputs": [
        {
          "internalType": "uint256",
          "name": "id",
          "type": "uint256"
        },
        {
          "internalType": "string",
          "name": "title",
          "type": "string"
        },
        {
          "internalType": "string",
          "name": "description",
          "type": "string"
        },
        {
          "internalType": "string",
          "name": "imageURL",
          "type": "string"
        },
        {
          "internalType": "uint256",
          "name": "expiresAt",
          "type": "uint256"
        }
      ],
      "name": "updateProject",
      "outputs": [
        {
          "internalType": "bool",
          "name": "",
          "type": "bool"
        }
      ],
      "stateMutability": "nonpayable",
      "type": "function"
    },
    {
      "inputs": [
        {
          "internalType": "uint256",
          "name": "id",
          "type": "uint256"
        }
      ],
      "name": "updateStat",
      "outputs": [
        {
          "internalType": "bool",
          "name": "",
          "type": "bool"
        }
      ],
      "stateMutability": "nonpayable",
      "type": "function"
    }
  ],
  "bytecode": "0x608060405234801561001057600080fd5b50600080546001600160a01b031916331790556121b4806100326000396000f3fe6080604052600436106100e85760003560e01c80639f39a1941161008a578063d80528ae11610059578063d80528ae14610277578063da67f57c146102b1578063dcc60128146102d1578063f0f3f2c8146102f357600080fd5b80639f39a19414610201578063b531dcba14610214578063b69ef8a814610234578063c9168b721461024a57600080fd5b80634cd0cb28116100c65780634cd0cb28146101595780638593054b146101795780638da5cb5b146101a95780639a3fa8c7146101e157600080fd5b8063056c29ee146100ed57806336fbad26146101225780633f7ed52e14610146575b600080fd5b3480156100f957600080fd5b5061010d610108366004611c9c565b610320565b60405190151581526020015b60405180910390f35b34801561012e57600080fd5b5061013860015481565b604051908152602001610119565b61010d610154366004611d36565b610783565b34801561016557600080fd5b5061010d610174366004611d36565b6108df565b34801561018557600080fd5b5061010d610194366004611d36565b60096020526000908152604090205460ff1681565b3480156101b557600080fd5b506000546101c9906001600160a01b031681565b6040516001600160a01b039091168152602001610119565b3480156101ed57600080fd5b5061010d6101fc366004611d4f565b610a34565b61010d61020f366004611d36565b610cab565b34801561022057600080fd5b5061010d61022f366004611d36565b610fe6565b34801561024057600080fd5b5061013860025481565b34801561025657600080fd5b5061026a610265366004611d36565b6110d5565b6040516101199190611de9565b34801561028357600080fd5b5060035460045460055461029692919083565b60408051938452602084019290925290820152606001610119565b3480156102bd57600080fd5b5061010d6102cc366004611d36565b611177565b3480156102dd57600080fd5b506102e661125d565b6040516101199190611fa2565b3480156102ff57600080fd5b5061031361030e366004611d36565b6114f8565b6040516101199190612004565b60008086511161036f5760405162461bcd60e51b81526020600482015260156024820152745469746c652063616e6e6f7420626520656d70747960581b60448201526064015b60405180910390fd5b60008551116103c05760405162461bcd60e51b815260206004820152601b60248201527f4465736372697074696f6e2063616e6e6f7420626520656d70747900000000006044820152606401610366565b600084511161040c5760405162461bcd60e51b8152602060048201526018602482015277496d61676555524c2063616e6e6f7420626520656d70747960401b6044820152606401610366565b600083116104525760405162461bcd60e51b8152602060048201526013602482015272436f73742063616e6e6f74206265207a65726f60681b6044820152606401610366565b61045a611aed565b600180548252336020808401918252604084018a8152606085018a90526080850189905260a085018890524260e0860152610100850187905260068054948501815560005284517ff652222313e28459528d920b65115c16c04f3efc82aaedc97be59f3f377c0d3f600b90950294850190815592517ff652222313e28459528d920b65115c16c04f3efc82aaedc97be59f3f377c0d40850180546001600160a01b0319166001600160a01b039092169190911790555180518594610544937ff652222313e28459528d920b65115c16c04f3efc82aaedc97be59f3f377c0d41909101920190611b60565b5060608201518051610560916003840191602090910190611b60565b506080820151805161057c916004840191602090910190611b60565b5060a0820151600582015560c0820151600682015560e0820151600782015561010082015160088201556101208201516009820155610140820151600a8201805460ff191660018360038111156105d5576105d5611ea5565b021790555050600180546000908152600960209081526040808320805460ff1916851790553383526007825280832080548086018255908452928290208651600b909402019283558582015193830180546001600160a01b0319166001600160a01b0390951694909417909355918401518051859450919261065f92600285019290910190611b60565b506060820151805161067b916003840191602090910190611b60565b5060808201518051610697916004840191602090910190611b60565b5060a0820151600582015560c0820151600682015560e0820151600782015561010082015160088201556101208201516009820155610140820151600a8201805460ff191660018360038111156106f0576106f0611ea5565b0217905550505060016003600001600082825461070d9190612034565b909155505060018054339160008051602061215f833981519152919060006107348361204c565b9091555060408051918252606060208301819052600f908301526e141493d29150d50810d49150551151608a1b6080830152429082015260a00160405180910390a25060019695505050505050565b60008181526009602052604081205460ff166107b15760405162461bcd60e51b815260040161036690612067565b6000600683815481106107c6576107c6612092565b60009182526020909120600a600b90920201015460ff1660038111156107ee576107ee611ea5565b1461080b5760405162461bcd60e51b8152600401610366906120a8565b604080518381526060602082018190526010908201526f141493d29150d508149151955391115160821b608082015242818301529051339160008051602061215f833981519152919081900360a00190a26006828154811061086f5761086f612092565b90600052602060002090600b02016008015442106108d75760016006838154811061089c5761089c612092565b60009182526020909120600a600b9092020101805460ff191660018360038111156108c9576108c9611ea5565b02179055506108d7826117b4565b506001919050565b600080600683815481106108f5576108f5612092565b60009182526020909120600a600b90920201015460ff16600381111561091d5761091d611ea5565b1461093a5760405162461bcd60e51b8152600401610366906120a8565b6006828154811061094d5761094d612092565b60009182526020909120600b90910201600101546001600160a01b031633146109885760405162461bcd60e51b8152600401610366906120df565b60026006838154811061099d5761099d612092565b60009182526020909120600a600b9092020101805460ff191660018360038111156109ca576109ca611ea5565b02179055506109d8826117b4565b60408051838152606060208201819052600f908201526e141493d29150d50811115311551151608a1b60808201524291810191909152339060008051602061215f8339815191529060a0015b60405180910390a2506001919050565b600060068681548110610a4957610a49612092565b60009182526020909120600b90910201600101546001600160a01b03163314610a845760405162461bcd60e51b8152600401610366906120df565b6000855111610acd5760405162461bcd60e51b81526020600482015260156024820152745469746c652063616e6e6f7420626520656d70747960581b6044820152606401610366565b6000845111610b1e5760405162461bcd60e51b815260206004820152601b60248201527f4465736372697074696f6e2063616e6e6f7420626520656d70747900000000006044820152606401610366565b6000835111610b6a5760405162461bcd60e51b8152602060048201526018602482015277496d61676555524c2063616e6e6f7420626520656d70747960401b6044820152606401610366565b8460068781548110610b7e57610b7e612092565b90600052602060002090600b02016002019080519060200190610ba2929190611b60565b508360068781548110610bb757610bb7612092565b90600052602060002090600b02016003019080519060200190610bdb929190611b60565b508260068781548110610bf057610bf0612092565b90600052602060002090600b02016004019080519060200190610c14929190611b60565b508160068781548110610c2957610c29612092565b90600052602060002090600b020160080181905550336001600160a01b031660008051602061215f8339815191528742604051610c97929190918252606060208301819052600f908301526e141493d29150d50815541110551151608a1b6080830152604082015260a00190565b60405180910390a250600195945050505050565b6000803411610cfc5760405162461bcd60e51b815260206004820152601f60248201527f4574686572206d7573742062652067726561746572207468616e207a65726f006044820152606401610366565b60008281526009602052604090205460ff16610d2a5760405162461bcd60e51b815260040161036690612067565b600060068381548110610d3f57610d3f612092565b60009182526020909120600a600b90920201015460ff166003811115610d6757610d67611ea5565b14610d845760405162461bcd60e51b8152600401610366906120a8565b600160036001016000828254610d9a9190612034565b909155505060058054349190600090610db4908490612034565b925050819055503460068381548110610dcf57610dcf612092565b90600052602060002090600b02016006016000828254610def9190612034565b92505081905550600160068381548110610e0b57610e0b612092565b90600052602060002090600b02016009016000828254610e2b9190612034565b9091555050600082815260086020908152604080832081516080808201845233808352348387019081524284870181815260608087018b8152885460018082018b55998d529b8b902097516004909c0290970180546001600160a01b0319166001600160a01b03909c169b909b178b559251968a01969096559451600289015592516003909701805460ff1916971515979097179096558351888152948501829052600e918501919091526d141493d29150d508109050d2d15160921b908401529082015260008051602061215f8339815191529060a00160405180910390a260068281548110610f1e57610f1e612092565b90600052602060002090600b02016005015460068381548110610f4357610f43612092565b90600052602060002090600b020160060154106108d757600160068381548110610f6f57610f6f612092565b60009182526020909120600a600b9092020101805460ff19166001836003811115610f9c57610f9c611ea5565b021790555060068281548110610fb457610fb4612092565b90600052602060002090600b02016006015460026000828254610fd79190612034565b909155506108d7905082611922565b6000600160068381548110610ffd57610ffd612092565b60009182526020909120600a600b90920201015460ff16600381111561102557611025611ea5565b146110695760405162461bcd60e51b8152602060048201526014602482015273141c9bda9958dd081b9bdd081054141493d5915160621b6044820152606401610366565b6006828154811061107c5761107c612092565b60009182526020909120600b90910201600101546001600160a01b03163314806110b057506000546001600160a01b031633145b6110cc5760405162461bcd60e51b8152600401610366906120df565b6108d782611922565b606060086000838152602001908152602001600020805480602002602001604051908101604052809291908181526020016000905b8282101561116c576000848152602090819020604080516080810182526004860290920180546001600160a01b03168352600180820154848601526002820154928401929092526003015460ff1615156060830152908352909201910161110a565b505050509050919050565b60006006828154811061118c5761118c612092565b60009182526020909120600b90910201600101546001600160a01b031633146111c75760405162461bcd60e51b8152600401610366906120df565b6001600683815481106111dc576111dc612092565b60009182526020909120600a600b9092020101805460ff1916600183600381111561120957611209611ea5565b021790555060408051838152606060208201819052600e908201526d14d510551554c81554111055115160921b60808201524291810191909152339060008051602061215f8339815191529060a001610a24565b60606006805480602002602001604051908101604052809291908181526020016000905b828210156114ef5760008481526020908190206040805161016081018252600b86029092018054835260018101546001600160a01b031693830193909352600283018054929392918401916112d59061210c565b80601f01602080910402602001604051908101604052809291908181526020018280546113019061210c565b801561134e5780601f106113235761010080835404028352916020019161134e565b820191906000526020600020905b81548152906001019060200180831161133157829003601f168201915b505050505081526020016003820180546113679061210c565b80601f01602080910402602001604051908101604052809291908181526020018280546113939061210c565b80156113e05780601f106113b5576101008083540402835291602001916113e0565b820191906000526020600020905b8154815290600101906020018083116113c357829003601f168201915b505050505081526020016004820180546113f99061210c565b80601f01602080910402602001604051908101604052809291908181526020018280546114259061210c565b80156114725780601f1061144757610100808354040283529160200191611472565b820191906000526020600020905b81548152906001019060200180831161145557829003601f168201915b505050918352505060058201546020820152600682015460408201526007820154606082015260088201546080820152600982015460a0820152600a82015460c09091019060ff1660038111156114cb576114cb611ea5565b60038111156114dc576114dc611ea5565b8152505081526020019060010190611281565b50505050905090565b611500611aed565b60008281526009602052604090205460ff1661152e5760405162461bcd60e51b815260040161036690612067565b6006828154811061154157611541612092565b90600052602060002090600b020160405180610160016040529081600082015481526020016001820160009054906101000a90046001600160a01b03166001600160a01b03166001600160a01b031681526020016002820180546115a49061210c565b80601f01602080910402602001604051908101604052809291908181526020018280546115d09061210c565b801561161d5780601f106115f25761010080835404028352916020019161161d565b820191906000526020600020905b81548152906001019060200180831161160057829003601f168201915b505050505081526020016003820180546116369061210c565b80601f01602080910402602001604051908101604052809291908181526020018280546116629061210c565b80156116af5780601f10611684576101008083540402835291602001916116af565b820191906000526020600020905b81548152906001019060200180831161169257829003601f168201915b505050505081526020016004820180546116c89061210c565b80601f01602080910402602001604051908101604052809291908181526020018280546116f49061210c565b80156117415780601f1061171657610100808354040283529160200191611741565b820191906000526020600020905b81548152906001019060200180831161172457829003601f168201915b505050918352505060058201546020820152600682015460408201526007820154606082015260088201546080820152600982015460a0820152600a82015460c09091019060ff16600381111561179a5761179a611ea5565b60038111156117ab576117ab611ea5565b90525092915050565b60005b60008281526008602052604090205481101561191e5760008281526008602052604081208054839081106117ed576117ed612092565b6000918252602080832060049092029091015485835260089091526040822080546001600160a01b039092169350908490811061182c5761182c612092565b9060005260206000209060040201600101549050600160086000868152602001908152602001600020848154811061186657611866612092565b906000526020600020906004020160030160006101000a81548160ff021916908315150217905550426008600086815260200190815260200160002084815481106118b3576118b3612092565b9060005260206000209060040201600201819055506118d28282611a88565b6001600360010160008282546118e89190612147565b909155505060058054829190600090611902908490612147565b92505081905550505080806119169061204c565b9150506117b7565b5050565b60006006828154811061193757611937612092565b90600052602060002090600b0201600601549050600067016345785d8a0000905060036006848154811061196d5761196d612092565b60009182526020909120600a600b9092020101805460ff1916600183600381111561199a5761199a611ea5565b02179055506119e1600684815481106119b5576119b5612092565b600091825260209091206001600b9092020101546001600160a01b03166119dc8385612147565b611a88565b6000546119f7906001600160a01b031682611a88565b60068381548110611a0a57611a0a612092565b90600052602060002090600b02016006015460026000828254611a2d9190612147565b9091555050604080518481526060602082018190526010908201526f141493d29150d508141052510813d55560821b608082015242818301529051339160008051602061215f833981519152919081900360a00190a2505050565b6000826001600160a01b03168260405160006040518083038185875af1925050503d8060008114611ad5576040519150601f19603f3d011682016040523d82523d6000602084013e611ada565b606091505b5050905080611ae857600080fd5b505050565b6040518061016001604052806000815260200160006001600160a01b03168152602001606081526020016060815260200160608152602001600081526020016000815260200160008152602001600081526020016000815260200160006003811115611b5b57611b5b611ea5565b905290565b828054611b6c9061210c565b90600052602060002090601f016020900481019282611b8e5760008555611bd4565b82601f10611ba757805160ff1916838001178555611bd4565b82800160010185558215611bd4579182015b82811115611bd4578251825591602001919060010190611bb9565b50611be0929150611be4565b5090565b5b80821115611be05760008155600101611be5565b634e487b7160e01b600052604160045260246000fd5b600082601f830112611c2057600080fd5b813567ffffffffffffffff80821115611c3b57611c3b611bf9565b604051601f8301601f19908116603f01168101908282118183101715611c6357611c63611bf9565b81604052838152866020858801011115611c7c57600080fd5b836020870160208301376000602085830101528094505050505092915050565b600080600080600060a08688031215611cb457600080fd5b853567ffffffffffffffff80821115611ccc57600080fd5b611cd889838a01611c0f565b96506020880135915080821115611cee57600080fd5b611cfa89838a01611c0f565b95506040880135915080821115611d1057600080fd5b50611d1d88828901611c0f565b9598949750949560608101359550608001359392505050565b600060208284031215611d4857600080fd5b5035919050565b600080600080600060a08688031215611d6757600080fd5b85359450602086013567ffffffffffffffff80821115611d8657600080fd5b611d9289838a01611c0f565b95506040880135915080821115611da857600080fd5b611db489838a01611c0f565b94506060880135915080821115611dca57600080fd5b50611dd788828901611c0f565b95989497509295608001359392505050565b602080825282518282018190526000919060409081850190868401855b82811015611e4b57815180516001600160a01b031685528681015187860152858101518686015260609081015115159085015260809093019290850190600101611e06565b5091979650505050505050565b6000815180845260005b81811015611e7e57602081850181015186830182015201611e62565b81811115611e90576000602083870101525b50601f01601f19169290920160200192915050565b634e487b7160e01b600052602160045260246000fd5b60048110611ed957634e487b7160e01b600052602160045260246000fd5b9052565b6000610160825184526020830151611f0060208601826001600160a01b03169052565b506040830151816040860152611f1882860182611e58565b91505060608301518482036060860152611f328282611e58565b91505060808301518482036080860152611f4c8282611e58565b91505060a083015160a085015260c083015160c085015260e083015160e085015261010080840151818601525061012080840151818601525061014080840151611f9882870182611ebb565b5090949350505050565b6000602080830181845280855180835260408601915060408160051b870101925083870160005b82811015611ff757603f19888603018452611fe5858351611edd565b94509285019290850190600101611fc9565b5092979650505050505050565b6020815260006120176020830184611edd565b9392505050565b634e487b7160e01b600052601160045260246000fd5b600082198211156120475761204761201e565b500190565b60006000198214156120605761206061201e565b5060010190565b602080825260119082015270141c9bda9958dd081b9bdd08199bdd5b99607a1b604082015260600190565b634e487b7160e01b600052603260045260246000fd5b60208082526018908201527f50726f6a656374206e6f206c6f6e676572206f70656e65640000000000000000604082015260600190565b602080825260139082015272556e617574686f72697a656420456e7469747960681b604082015260600190565b600181811c9082168061212057607f821691505b6020821081141561214157634e487b7160e01b600052602260045260246000fd5b50919050565b6000828210156121595761215961201e565b50039056feaee8e5d3bbb2f71a951b5632cee20f7ac487b9f8ab4f66a236f7694b13af7c6aa2646970667358221220d8b22d24e11f409226a5b0e845b2f7a03da95dba62aa349e4c01d7ccc6211b3c64736f6c634300080b0033",
  "linkReferences": {},
  "deployedLinkReferences": {}
}