{
  "_format": "hh-sol-artifact-1",
  "contractName": "Genesis",
  "sourceName": "src/contracts/Genesis.sol",
  "abi": [
    {
      "inputs": [],
      "stateMutability": "nonpayable",
      "type": "constructor"
    },
    {
      "anonymous": false,
      "inputs": [
        {
          "indexed": false,
          "internalType": "uint256",
          "name": "id",
          "type": "uint256"
        },
        {
          "indexed": false,
          "internalType": "string",
          "name": "actionType",
          "type": "string"
        },
        {
          "indexed": true,
          "internalType": "address",
          "name": "executor",
          "type": "address"
        },
        {
          "indexed": false,
          "internalType": "uint256",
          "name": "timestamp",
          "type": "uint256"
        }
      ],
      "name": "Action",
      "type": "event"
    },
    {
      "inputs": [
        {
          "internalType": "uint256",
          "name": "id",
          "type": "uint256"
        }
      ],
      "name": "backProject",
      "outputs": [
        {
          "internalType": "bool",
          "name": "",
          "type": "bool"
        }
      ],
      "stateMutability": "payable",
      "type": "function"
    },
    {
      "inputs": [],
      "name": "balance",
      "outputs": [
        {
          "internalType": "uint256",
          "name": "",
          "type": "uint256"
        }
      ],
      "stateMutability": "view",
      "type": "function"
    },
    {
      "inputs": [
        {
          "internalType": "string",
          "name": "title",
          "type": "string"
        },
        {
          "internalType": "string",
          "name": "description",
          "type": "string"
        },
        {
          "internalType": "string",
          "name": "imageURL",
          "type": "string"
        },
        {
          "internalType": "uint256",
          "name": "cost",
          "type": "uint256"
        },
        {
          "internalType": "uint256",
          "name": "expiresAt",
          "type": "uint256"
        }
      ],
      "name": "createProject",
      "outputs": [
        {
          "internalType": "bool",
          "name": "",
          "type": "bool"
        }
      ],
      "stateMutability": "nonpayable",
      "type": "function"
    },
    {
      "inputs": [
        {
          "internalType": "uint256",
          "name": "id",
          "type": "uint256"
        }
      ],
      "name": "deleteProject",
      "outputs": [
        {
          "internalType": "bool",
          "name": "",
          "type": "bool"
        }
      ],
      "stateMutability": "nonpayable",
      "type": "function"
    },
    {
      "inputs": [
        {
          "internalType": "uint256",
          "name": "id",
          "type": "uint256"
        }
      ],
      "name": "getBackers",
      "outputs": [
        {
          "components": [
            {
              "internalType": "address",
              "name": "owner",
              "type": "address"
            },
            {
              "internalType": "uint256",
              "name": "contribution",
              "type": "uint256"
            },
            {
              "internalType": "uint256",
              "name": "timestamp",
              "type": "uint256"
            },
            {
              "internalType": "bool",
              "name": "refunded",
              "type": "bool"
            }
          ],
          "internalType": "struct Genesis.backerStruct[]",
          "name": "",
          "type": "tuple[]"
        }
      ],
      "stateMutability": "view",
      "type": "function"
    },
    {
      "inputs": [
        {
          "internalType": "uint256",
          "name": "id",
          "type": "uint256"
        }
      ],
      "name": "getProject",
      "outputs": [
        {
          "components": [
            {
              "internalType": "uint256",
              "name": "id",
              "type": "uint256"
            },
            {
              "internalType": "address",
              "name": "owner",
              "type": "address"
            },
            {
              "internalType": "string",
              "name": "title",
              "type": "string"
            },
            {
              "internalType": "string",
              "name": "description",
              "type": "string"
            },
            {
              "internalType": "string",
              "name": "imageURL",
              "type": "string"
            },
            {
              "internalType": "uint256",
              "name": "cost",
              "type": "uint256"
            },
            {
              "internalType": "uint256",
              "name": "raised",
              "type": "uint256"
            },
            {
              "internalType": "uint256",
              "name": "timestamp",
              "type": "uint256"
            },
            {
              "internalType": "uint256",
              "name": "expiresAt",
              "type": "uint256"
            },
            {
              "internalType": "uint256",
              "name": "backers",
              "type": "uint256"
            },
            {
              "internalType": "enum Genesis.statusEnum",
              "name": "status",
              "type": "uint8"
            }
          ],
          "internalType": "struct Genesis.projectStruct",
          "name": "",
          "type": "tuple"
        }
      ],
      "stateMutability": "view",
      "type": "function"
    },
    {
      "inputs": [],
      "name": "getProjects",
      "outputs": [
        {
          "components": [
            {
              "internalType": "uint256",
              "name": "id",
              "type": "uint256"
            },
            {
              "internalType": "address",
              "name": "owner",
              "type": "address"
            },
            {
              "internalType": "string",
              "name": "title",
              "type": "string"
            },
            {
              "internalType": "string",
              "name": "description",
              "type": "string"
            },
            {
              "internalType": "string",
              "name": "imageURL",
              "type": "string"
            },
            {
              "internalType": "uint256",
              "name": "cost",
              "type": "uint256"
            },
            {
              "internalType": "uint256",
              "name": "raised",
              "type": "uint256"
            },
            {
              "internalType": "uint256",
              "name": "timestamp",
              "type": "uint256"
            },
            {
              "internalType": "uint256",
              "name": "expiresAt",
              "type": "uint256"
            },
            {
              "internalType": "uint256",
              "name": "backers",
              "type": "uint256"
            },
            {
              "internalType": "enum Genesis.statusEnum",
              "name": "status",
              "type": "uint8"
            }
          ],
          "internalType": "struct Genesis.projectStruct[]",
          "name": "",
          "type": "tuple[]"
        }
      ],
      "stateMutability": "view",
      "type": "function"
    },
    {
      "inputs": [],
      "name": "owner",
      "outputs": [
        {
          "internalType": "address",
          "name": "",
          "type": "address"
        }
      ],
      "stateMutability": "view",
      "type": "function"
    },
    {
      "inputs": [
        {
          "internalType": "uint256",
          "name": "id",
          "type": "uint256"
        }
      ],
      "name": "payOutProject",
      "outputs": [
        {
          "internalType": "bool",
          "name": "",
          "type": "bool"
        }
      ],
      "stateMutability": "nonpayable",
      "type": "function"
    },
    {
      "inputs": [],
      "name": "projectCount",
      "outputs": [
        {
          "internalType": "uint256",
          "name": "",
          "type": "uint256"
        }
      ],
      "stateMutability": "view",
      "type": "function"
    },
    {
      "inputs": [
        {
          "internalType": "uint256",
          "name": "",
          "type": "uint256"
        }
      ],
      "name": "projectExist",
      "outputs": [
        {
          "internalType": "bool",
          "name": "",
          "type": "bool"
        }
      ],
      "stateMutability": "view",
      "type": "function"
    },
    {
      "inputs": [],
      "name": "stats",
      "outputs": [
        {
          "internalType": "uint256",
          "name": "totalProjects",
          "type": "uint256"
        },
        {
          "internalType": "uint256",
          "name": "totalBacking",
          "type": "uint256"
        },
        {
          "internalType": "uint256",
          "name": "totalDonations",
          "type": "uint256"
        }
      ],
      "stateMutability": "view",
      "type": "function"
    },
    {
      "inputs": [
        {
          "internalType": "uint256",
          "name": "id",
          "type": "uint256"
        },
        {
          "internalType": "string",
          "name": "title",
          "type": "string"
        },
        {
          "internalType": "string",
          "name": "description",
          "type": "string"
        },
        {
          "internalType": "string",
          "name": "imageURL",
          "type": "string"
        },
        {
          "internalType": "uint256",
          "name": "expiresAt",
          "type": "uint256"
        }
      ],
      "name": "updateProject",
      "outputs": [
        {
          "internalType": "bool",
          "name": "",
          "type": "bool"
        }
      ],
      "stateMutability": "nonpayable",
      "type": "function"
    }
  ],
  "bytecode": "0x608060405234801561001057600080fd5b50600080546001600160a01b03191633179055611f8a806100326000396000f3fe6080604052600436106100c25760003560e01c80639f39a1941161007f578063c9168b7211610059578063c9168b7214610211578063d80528ae1461023e578063dcc6012814610278578063f0f3f2c81461029a57600080fd5b80639f39a194146101c8578063b531dcba146101db578063b69ef8a8146101fb57600080fd5b8063056c29ee146100c757806336fbad26146100fc5780634cd0cb28146101205780638593054b146101405780638da5cb5b146101705780639a3fa8c7146101a8575b600080fd5b3480156100d357600080fd5b506100e76100e2366004611ad4565b6102c7565b60405190151581526020015b60405180910390f35b34801561010857600080fd5b5061011260015481565b6040519081526020016100f3565b34801561012c57600080fd5b506100e761013b366004611b6e565b61072a565b34801561014c57600080fd5b506100e761015b366004611b6e565b60096020526000908152604090205460ff1681565b34801561017c57600080fd5b50600054610190906001600160a01b031681565b6040516001600160a01b0390911681526020016100f3565b3480156101b457600080fd5b506100e76101c3366004611b87565b6108a6565b6100e76101d6366004611b6e565b610b1d565b3480156101e757600080fd5b506100e76101f6366004611b6e565b610ee0565b34801561020757600080fd5b5061011260025481565b34801561021d57600080fd5b5061023161022c366004611b6e565b610fcf565b6040516100f39190611c21565b34801561024a57600080fd5b5060035460045460055461025d92919083565b604080519384526020840192909252908201526060016100f3565b34801561028457600080fd5b5061028d611071565b6040516100f39190611dda565b3480156102a657600080fd5b506102ba6102b5366004611b6e565b61130c565b6040516100f39190611e3c565b6000808651116103165760405162461bcd60e51b81526020600482015260156024820152745469746c652063616e6e6f7420626520656d70747960581b60448201526064015b60405180910390fd5b60008551116103675760405162461bcd60e51b815260206004820152601b60248201527f4465736372697074696f6e2063616e6e6f7420626520656d7074790000000000604482015260640161030d565b60008451116103b35760405162461bcd60e51b8152602060048201526018602482015277496d61676555524c2063616e6e6f7420626520656d70747960401b604482015260640161030d565b600083116103f95760405162461bcd60e51b8152602060048201526013602482015272436f73742063616e6e6f74206265207a65726f60681b604482015260640161030d565b610401611925565b600180548252336020808401918252604084018a8152606085018a90526080850189905260a085018890524260e0860152610100850187905260068054948501815560005284517ff652222313e28459528d920b65115c16c04f3efc82aaedc97be59f3f377c0d3f600b90950294850190815592517ff652222313e28459528d920b65115c16c04f3efc82aaedc97be59f3f377c0d40850180546001600160a01b0319166001600160a01b0390921691909117905551805185946104eb937ff652222313e28459528d920b65115c16c04f3efc82aaedc97be59f3f377c0d41909101920190611998565b5060608201518051610507916003840191602090910190611998565b5060808201518051610523916004840191602090910190611998565b5060a0820151600582015560c0820151600682015560e0820151600782015561010082015160088201556101208201516009820155610140820151600a8201805460ff1916600183600381111561057c5761057c611cdd565b021790555050600180546000908152600960209081526040808320805460ff1916851790553383526007825280832080548086018255908452928290208651600b909402019283558582015193830180546001600160a01b0319166001600160a01b0390951694909417909355918401518051859450919261060692600285019290910190611998565b5060608201518051610622916003840191602090910190611998565b506080820151805161063e916004840191602090910190611998565b5060a0820151600582015560c0820151600682015560e0820151600782015561010082015160088201556101208201516009820155610140820151600a8201805460ff1916600183600381111561069757610697611cdd565b021790555050506001600360000160008282546106b49190611e6c565b9091555050600180543391600080516020611f35833981519152919060006106db83611e84565b9091555060408051918252606060208301819052600f908301526e141493d29150d50810d49150551151608a1b6080830152429082015260a00160405180910390a25060019695505050505050565b6000806006838154811061074057610740611e9f565b60009182526020909120600a600b90920201015460ff16600381111561076857610768611cdd565b146107b05760405162461bcd60e51b8152602060048201526018602482015277141c9bda9958dd081b9bc81b1bdb99d95c881bdc195b995960421b604482015260640161030d565b600682815481106107c3576107c3611e9f565b60009182526020909120600b90910201600101546001600160a01b031633146107fe5760405162461bcd60e51b815260040161030d90611eb5565b60026006838154811061081357610813611e9f565b60009182526020909120600a600b9092020101805460ff1916600183600381111561084057610840611cdd565b021790555061084e826115ec565b60408051838152606060208201819052600f908201526e141493d29150d50811115311551151608a1b6080820152428183015290513391600080516020611f35833981519152919081900360a00190a2506001919050565b6000600686815481106108bb576108bb611e9f565b60009182526020909120600b90910201600101546001600160a01b031633146108f65760405162461bcd60e51b815260040161030d90611eb5565b600085511161093f5760405162461bcd60e51b81526020600482015260156024820152745469746c652063616e6e6f7420626520656d70747960581b604482015260640161030d565b60008451116109905760405162461bcd60e51b815260206004820152601b60248201527f4465736372697074696f6e2063616e6e6f7420626520656d7074790000000000604482015260640161030d565b60008351116109dc5760405162461bcd60e51b8152602060048201526018602482015277496d61676555524c2063616e6e6f7420626520656d70747960401b604482015260640161030d565b84600687815481106109f0576109f0611e9f565b90600052602060002090600b02016002019080519060200190610a14929190611998565b508360068781548110610a2957610a29611e9f565b90600052602060002090600b02016003019080519060200190610a4d929190611998565b508260068781548110610a6257610a62611e9f565b90600052602060002090600b02016004019080519060200190610a86929190611998565b508160068781548110610a9b57610a9b611e9f565b90600052602060002090600b020160080181905550336001600160a01b0316600080516020611f358339815191528742604051610b09929190918252606060208301819052600f908301526e141493d29150d50815541110551151608a1b6080830152604082015260a00190565b60405180910390a250600195945050505050565b6000803411610b6e5760405162461bcd60e51b815260206004820152601f60248201527f4574686572206d7573742062652067726561746572207468616e207a65726f00604482015260640161030d565b60008281526009602052604090205460ff16610bc05760405162461bcd60e51b8152602060048201526011602482015270141c9bda9958dd081b9bdd08199bdd5b99607a1b604482015260640161030d565b600060068381548110610bd557610bd5611e9f565b60009182526020909120600a600b90920201015460ff166003811115610bfd57610bfd611cdd565b14610c455760405162461bcd60e51b8152602060048201526018602482015277141c9bda9958dd081b9bc81b1bdb99d95c881bdc195b995960421b604482015260640161030d565b600160036001016000828254610c5b9190611e6c565b909155505060058054349190600090610c75908490611e6c565b925050819055503460068381548110610c9057610c90611e9f565b90600052602060002090600b02016006016000828254610cb09190611e6c565b92505081905550600160068381548110610ccc57610ccc611e9f565b90600052602060002090600b02016009016000828254610cec9190611e6c565b9091555050600082815260086020908152604080832081516080808201845233808352348387019081524284870181815260608087018b8152885460018082018b55998d529b8b902097516004909c0290970180546001600160a01b0319166001600160a01b03909c169b909b178b559251968a01969096559451600289015592516003909701805460ff1916971515979097179096558351888152948501829052600e918501919091526d141493d29150d508109050d2d15160921b9084015290820152600080516020611f358339815191529060a00160405180910390a260068281548110610ddf57610ddf611e9f565b90600052602060002090600b02016005015460068381548110610e0457610e04611e9f565b90600052602060002090600b020160060154101580610e47575060068281548110610e3157610e31611e9f565b90600052602060002090600b0201600801544210155b15610ed857600160068381548110610e6157610e61611e9f565b60009182526020909120600a600b9092020101805460ff19166001836003811115610e8e57610e8e611cdd565b021790555060068281548110610ea657610ea6611e9f565b90600052602060002090600b02016006015460026000828254610ec99190611e6c565b90915550610ed890508261175a565b506001919050565b6000600160068381548110610ef757610ef7611e9f565b60009182526020909120600a600b90920201015460ff166003811115610f1f57610f1f611cdd565b14610f635760405162461bcd60e51b8152602060048201526014602482015273141c9bda9958dd081b9bdd081054141493d5915160621b604482015260640161030d565b60068281548110610f7657610f76611e9f565b60009182526020909120600b90910201600101546001600160a01b0316331480610faa57506000546001600160a01b031633145b610fc65760405162461bcd60e51b815260040161030d90611eb5565b610ed88261175a565b606060086000838152602001908152602001600020805480602002602001604051908101604052809291908181526020016000905b82821015611066576000848152602090819020604080516080810182526004860290920180546001600160a01b03168352600180820154848601526002820154928401929092526003015460ff16151560608301529083529092019101611004565b505050509050919050565b60606006805480602002602001604051908101604052809291908181526020016000905b828210156113035760008481526020908190206040805161016081018252600b86029092018054835260018101546001600160a01b031693830193909352600283018054929392918401916110e990611ee2565b80601f016020809104026020016040519081016040528092919081815260200182805461111590611ee2565b80156111625780601f1061113757610100808354040283529160200191611162565b820191906000526020600020905b81548152906001019060200180831161114557829003601f168201915b5050505050815260200160038201805461117b90611ee2565b80601f01602080910402602001604051908101604052809291908181526020018280546111a790611ee2565b80156111f45780601f106111c9576101008083540402835291602001916111f4565b820191906000526020600020905b8154815290600101906020018083116111d757829003601f168201915b5050505050815260200160048201805461120d90611ee2565b80601f016020809104026020016040519081016040528092919081815260200182805461123990611ee2565b80156112865780601f1061125b57610100808354040283529160200191611286565b820191906000526020600020905b81548152906001019060200180831161126957829003601f168201915b505050918352505060058201546020820152600682015460408201526007820154606082015260088201546080820152600982015460a0820152600a82015460c09091019060ff1660038111156112df576112df611cdd565b60038111156112f0576112f0611cdd565b8152505081526020019060010190611095565b50505050905090565b611314611925565b60008281526009602052604090205460ff166113665760405162461bcd60e51b8152602060048201526011602482015270141c9bda9958dd081b9bdd08199bdd5b99607a1b604482015260640161030d565b6006828154811061137957611379611e9f565b90600052602060002090600b020160405180610160016040529081600082015481526020016001820160009054906101000a90046001600160a01b03166001600160a01b03166001600160a01b031681526020016002820180546113dc90611ee2565b80601f016020809104026020016040519081016040528092919081815260200182805461140890611ee2565b80156114555780601f1061142a57610100808354040283529160200191611455565b820191906000526020600020905b81548152906001019060200180831161143857829003601f168201915b5050505050815260200160038201805461146e90611ee2565b80601f016020809104026020016040519081016040528092919081815260200182805461149a90611ee2565b80156114e75780601f106114bc576101008083540402835291602001916114e7565b820191906000526020600020905b8154815290600101906020018083116114ca57829003601f168201915b5050505050815260200160048201805461150090611ee2565b80601f016020809104026020016040519081016040528092919081815260200182805461152c90611ee2565b80156115795780601f1061154e57610100808354040283529160200191611579565b820191906000526020600020905b81548152906001019060200180831161155c57829003601f168201915b505050918352505060058201546020820152600682015460408201526007820154606082015260088201546080820152600982015460a0820152600a82015460c09091019060ff1660038111156115d2576115d2611cdd565b60038111156115e3576115e3611cdd565b90525092915050565b60005b60008281526008602052604090205481101561175657600082815260086020526040812080548390811061162557611625611e9f565b6000918252602080832060049092029091015485835260089091526040822080546001600160a01b039092169350908490811061166457611664611e9f565b9060005260206000209060040201600101549050600160086000868152602001908152602001600020848154811061169e5761169e611e9f565b906000526020600020906004020160030160006101000a81548160ff021916908315150217905550426008600086815260200190815260200160002084815481106116eb576116eb611e9f565b90600052602060002090600402016002018190555061170a82826118c0565b6001600360010160008282546117209190611f1d565b90915550506005805482919060009061173a908490611f1d565b925050819055505050808061174e90611e84565b9150506115ef565b5050565b60006006828154811061176f5761176f611e9f565b90600052602060002090600b0201600601549050600067016345785d8a000090506003600684815481106117a5576117a5611e9f565b60009182526020909120600a600b9092020101805460ff191660018360038111156117d2576117d2611cdd565b0217905550611819600684815481106117ed576117ed611e9f565b600091825260209091206001600b9092020101546001600160a01b03166118148385611f1d565b6118c0565b60005461182f906001600160a01b0316826118c0565b6006838154811061184257611842611e9f565b90600052602060002090600b020160060154600260008282546118659190611f1d565b9091555050604080518481526060602082018190526010908201526f141493d29150d508141052510813d55560821b6080820152428183015290513391600080516020611f35833981519152919081900360a00190a2505050565b6000826001600160a01b03168260405160006040518083038185875af1925050503d806000811461190d576040519150601f19603f3d011682016040523d82523d6000602084013e611912565b606091505b505090508061192057600080fd5b505050565b6040518061016001604052806000815260200160006001600160a01b0316815260200160608152602001606081526020016060815260200160008152602001600081526020016000815260200160008152602001600081526020016000600381111561199357611993611cdd565b905290565b8280546119a490611ee2565b90600052602060002090601f0160209004810192826119c65760008555611a0c565b82601f106119df57805160ff1916838001178555611a0c565b82800160010185558215611a0c579182015b82811115611a0c5782518255916020019190600101906119f1565b50611a18929150611a1c565b5090565b5b80821115611a185760008155600101611a1d565b634e487b7160e01b600052604160045260246000fd5b600082601f830112611a5857600080fd5b813567ffffffffffffffff80821115611a7357611a73611a31565b604051601f8301601f19908116603f01168101908282118183101715611a9b57611a9b611a31565b81604052838152866020858801011115611ab457600080fd5b836020870160208301376000602085830101528094505050505092915050565b600080600080600060a08688031215611aec57600080fd5b853567ffffffffffffffff80821115611b0457600080fd5b611b1089838a01611a47565b96506020880135915080821115611b2657600080fd5b611b3289838a01611a47565b95506040880135915080821115611b4857600080fd5b50611b5588828901611a47565b9598949750949560608101359550608001359392505050565b600060208284031215611b8057600080fd5b5035919050565b600080600080600060a08688031215611b9f57600080fd5b85359450602086013567ffffffffffffffff80821115611bbe57600080fd5b611bca89838a01611a47565b95506040880135915080821115611be057600080fd5b611bec89838a01611a47565b94506060880135915080821115611c0257600080fd5b50611c0f88828901611a47565b95989497509295608001359392505050565b602080825282518282018190526000919060409081850190868401855b82811015611c8357815180516001600160a01b031685528681015187860152858101518686015260609081015115159085015260809093019290850190600101611c3e565b5091979650505050505050565b6000815180845260005b81811015611cb657602081850181015186830182015201611c9a565b81811115611cc8576000602083870101525b50601f01601f19169290920160200192915050565b634e487b7160e01b600052602160045260246000fd5b60048110611d1157634e487b7160e01b600052602160045260246000fd5b9052565b6000610160825184526020830151611d3860208601826001600160a01b03169052565b506040830151816040860152611d5082860182611c90565b91505060608301518482036060860152611d6a8282611c90565b91505060808301518482036080860152611d848282611c90565b91505060a083015160a085015260c083015160c085015260e083015160e085015261010080840151818601525061012080840151818601525061014080840151611dd082870182611cf3565b5090949350505050565b6000602080830181845280855180835260408601915060408160051b870101925083870160005b82811015611e2f57603f19888603018452611e1d858351611d15565b94509285019290850190600101611e01565b5092979650505050505050565b602081526000611e4f6020830184611d15565b9392505050565b634e487b7160e01b600052601160045260246000fd5b60008219821115611e7f57611e7f611e56565b500190565b6000600019821415611e9857611e98611e56565b5060010190565b634e487b7160e01b600052603260045260246000fd5b602080825260139082015272556e617574686f72697a656420456e7469747960681b604082015260600190565b600181811c90821680611ef657607f821691505b60208210811415611f1757634e487b7160e01b600052602260045260246000fd5b50919050565b600082821015611f2f57611f2f611e56565b50039056feaee8e5d3bbb2f71a951b5632cee20f7ac487b9f8ab4f66a236f7694b13af7c6aa26469706673582212207d83f5830d2048b9622bf28fd495b3dd997561e4ce8a87ffebca36f3cb8b739364736f6c634300080b0033",
  "linkReferences": {},
  "deployedLinkReferences": {}
}